{
  "_format": "hh-sol-artifact-1",
  "contractName": "ContractCreationTester",
  "sourceName": "solidity/ContractCreationTester.sol",
  "abi": [
    {
      "anonymous": false,
      "inputs": [
        {
          "indexed": true,
          "internalType": "address",
          "name": "contractAddr",
          "type": "address"
        },
        {
          "indexed": false,
          "internalType": "uint256",
          "name": "value",
          "type": "uint256"
        }
      ],
      "name": "ContractCreated",
      "type": "event"
    },
    {
      "anonymous": false,
      "inputs": [
        {
          "indexed": false,
          "internalType": "string",
          "name": "operation",
          "type": "string"
        },
        {
          "indexed": false,
          "internalType": "bool",
          "name": "success",
          "type": "bool"
        }
      ],
      "name": "OperationCompleted",
      "type": "event"
    },
    {
      "anonymous": false,
      "inputs": [
        {
          "indexed": true,
          "internalType": "address",
          "name": "recipient",
          "type": "address"
        },
        {
          "indexed": false,
          "internalType": "uint256",
          "name": "amount",
          "type": "uint256"
        }
      ],
      "name": "ValueSent",
      "type": "event"
    },
    {
      "inputs": [
        {
          "internalType": "uint256",
          "name": "creationValue",
          "type": "uint256"
        }
      ],
      "name": "createAndRevert",
      "outputs": [
        {
          "internalType": "contract SimpleReceiver",
          "name": "",
          "type": "address"
        }
      ],
      "stateMutability": "payable",
      "type": "function"
    },
    {
      "inputs": [
        {
          "internalType": "uint256",
          "name": "",
          "type": "uint256"
        }
      ],
      "name": "createdContracts",
      "outputs": [
        {
          "internalType": "address",
          "name": "",
          "type": "address"
        }
      ],
      "stateMutability": "view",
      "type": "function"
    },
    {
      "inputs": [
        {
          "internalType": "uint256",
          "name": "index",
          "type": "uint256"
        }
      ],
      "name": "getCreatedContract",
      "outputs": [
        {
          "internalType": "address",
          "name": "",
          "type": "address"
        }
      ],
      "stateMutability": "view",
      "type": "function"
    },
    {
      "inputs": [],
      "name": "getCreatedContractsCount",
      "outputs": [
        {
          "internalType": "uint256",
          "name": "",
          "type": "uint256"
        }
      ],
      "stateMutability": "view",
      "type": "function"
    },
    {
      "inputs": [
        {
          "internalType": "string",
          "name": "validatorAddr",
          "type": "string"
        },
        {
          "internalType": "uint256",
          "name": "delegateAmount1",
          "type": "uint256"
        },
        {
          "internalType": "uint256",
          "name": "creationValue",
          "type": "uint256"
        },
        {
          "internalType": "uint256",
          "name": "delegateAmount2",
          "type": "uint256"
        }
      ],
      "name": "scenario4_delegateCreateDelegate",
      "outputs": [],
      "stateMutability": "payable",
      "type": "function"
    },
    {
      "inputs": [
        {
          "internalType": "string",
          "name": "validatorAddr",
          "type": "string"
        },
        {
          "internalType": "uint256",
          "name": "delegateAmount1",
          "type": "uint256"
        },
        {
          "internalType": "uint256",
          "name": "creationValue",
          "type": "uint256"
        },
        {
          "internalType": "uint256",
          "name": "delegateAmount2",
          "type": "uint256"
        }
      ],
      "name": "scenario5_delegateCreateRevertDelegate",
      "outputs": [],
      "stateMutability": "payable",
      "type": "function"
    },
    {
      "inputs": [
        {
          "internalType": "uint256",
          "name": "creationValue1",
          "type": "uint256"
        },
        {
          "internalType": "string",
          "name": "validatorAddr",
          "type": "string"
        },
        {
          "internalType": "uint256",
          "name": "delegateAmount",
          "type": "uint256"
        },
        {
          "internalType": "uint256",
          "name": "creationValue2",
          "type": "uint256"
        }
      ],
      "name": "scenario6_createRevertDelegateCreateRevert",
      "outputs": [],
      "stateMutability": "payable",
      "type": "function"
    },
    {
      "inputs": [
        {
          "internalType": "uint256",
          "name": "creationValue",
          "type": "uint256"
        },
        {
          "internalType": "string",
          "name": "validatorAddr",
          "type": "string"
        },
        {
          "internalType": "uint256",
          "name": "delegateAmount",
          "type": "uint256"
        },
        {
          "internalType": "uint256",
          "name": "sendAmount",
          "type": "uint256"
        }
      ],
      "name": "scenario7_createDelegateRevertSend",
      "outputs": [],
      "stateMutability": "payable",
      "type": "function"
    },
    {
      "inputs": [
        {
          "internalType": "uint256",
          "name": "revertCreationValue",
          "type": "uint256"
        },
        {
          "internalType": "string",
          "name": "validatorAddr",
          "type": "string"
        },
        {
          "internalType": "uint256",
          "name": "delegateAmount",
          "type": "uint256"
        },
        {
          "internalType": "uint256",
          "name": "successCreationValue",
          "type": "uint256"
        }
      ],
      "name": "scenario8_createRevertDelegateCreateSuccess",
      "outputs": [],
      "stateMutability": "payable",
      "type": "function"
    },
    {
      "stateMutability": "payable",
      "type": "receive"
    }
  ],
  "bytecode": "0x608080604052346100165761104a908161001c8239f35b600080fdfe60406080815260048036101561001f575b5050361561001d57600080fd5b005b600091823560e01c80630881139714610acd5780637a0aaa5b146108cd578381637d5b95391461079f578163aabf1086146105ba57508063b203934e1461059d578063c242737f1461051f578063c53e5ae314610470578063e71b671a146102765763edab9299146100915750610010565b829161009c36610c00565b8596919651946353266bbb60e01b9081875264e8d4a5100096879581806100cc60209b8c94048b30888501610c51565b038161080098895af1801561026c5761024f575b50875198600080516020610ff58339815191528a806100ff839d610cad565b0390a188516101f3808201908282106001600160401b0383111761023c578a9897969593898f969394818f94610182978391610de283398a815203019083f091826101fc5750505060808160068f9351918083528201526563726561746560d01b6060820152868b820152a15b8a51988997889687958652049130908501610c51565b03925af180156101f2576101c4575b5050516040808252600990820152683232b632b3b0ba329960b91b60608201526001602082015280608081015b0390a180f35b816101e392903d106101eb575b6101db8183610b28565b810190610c39565b503880610191565b503d6101d1565b83513d87823e3d90fd5b6001600160a01b0390921692600080516020610fd5833981519152929061022285610cd8565b51908152a28b8b518061023481610d15565b0390a161016c565b634e487b7160e01b8e526041855260248efd5b61026590883d8a116101eb576101db8183610b28565b50386100e0565b89513d8d823e3d90fd5b5061028036610bc6565b92919064e8d4a5100085519163c53e5ae360e01b83528488840152602094838680826024829886305af18c9281610441575b506103f257505050600080516020610ff58339815191528751806102d581610d85565b0390a15b6102f8875194859384936353266bbb60e01b85520490308b8501610c51565b0381896108005af180156103e8576103cb575b50825193600080516020610ff5833981519152858061032a8398610db7565b0390a18351906101f3808301918383106001600160401b038411176103b8575083918391610de2833988815203019083f080156101f2576001600160a01b031691600080516020610fd5833981519152919061038584610cd8565b8451908152a25160408082526007908201526631b932b0ba329960c91b60608201526001602082015280608081016101be565b634e487b7160e01b895260419052602488fd5b6103e190823d84116101eb576101db8183610b28565b503861030b565b84513d88823e3d90fd5b6001600160a01b0390911691600080516020610fd5833981519152919061041884610cd8565b8a51908152a2600080516020610ff583398151915287518061043981610d5c565b0390a16102d9565b610462919350823d8411610469575b61045a8183610b28565b810190610d3d565b91386102b2565b503d610450565b5082602036600319011261051c5781516101f3808201908282106001600160401b03831117610509576020918391610de283398481520301908435f0156104fe57815162461bcd60e51b8152602081850152602160248201527f496e74656e74696f6e616c20726576657274206166746572206372656174696f6044820152603760f91b6064820152608490fd5b9051903d90823e3d90fd5b634e487b7160e01b845260418652602484fd5b80fd5b5091903461059957602036600319011261059957803591548210156105605760208361054a84610afb565b905491519160018060a01b039160031b1c168152f35b606490602084519162461bcd60e51b83528201526013602482015272496e646578206f7574206f6620626f756e647360681b6044820152fd5b5080fd5b838234610599578160031936011261059957602091549051908152f35b9190506105c636610bc6565b90949291845164e8d4a5100063c53e5ae360e01b97888352858a84015260209583878082602482988d305af18a9281610780575b5061073157505050600080516020610ff583398151915288518061061d81610d85565b0390a15b610640885194859384936353266bbb60e01b85520490308d8501610c51565b0381876108005af180156107275761070a575b5080845196600080516020610ff58339815191528880610673839b610db7565b0390a18551968752860152818560248186305af1809584966106eb575b506106c557506080935060108351938085528401526f18dc99585d194c97dc995d995c9d195960821b6060840152820152a180f35b92936001600160a01b031692600080516020610fd5833981519152925061038584610cd8565b610703919650833d85116104695761045a8183610b28565b9438610690565b61072090833d85116101eb576101db8183610b28565b5038610653565b85513d86823e3d90fd5b6001600160a01b0390911691600080516020610fd5833981519152919061075784610cd8565b8b51908152a2600080516020610ff583398151915288518061077881610d5c565b0390a1610621565b610798919350823d84116104695761045a8183610b28565b91386105fa565b9290506107ab36610c00565b8596919651946353266bbb60e01b9081875264e8d4a5100096879581806107db60209b8c94048b30888501610c51565b038161080098895af1801561026c576108b0575b50875198600080516020610ff58339815191528a8061080e839d610cad565b0390a188516101f3808201908282106001600160401b0383111761023c57828e96959493928c92610de2833987815203019082f080156108a657899796959493926101829290916001600160a01b031690600080516020610fd5833981519152908a908e61087b85610cd8565b51908152a28b8b518061088d81610d15565b0390a18a51988997889687958652049130908501610c51565b8a513d86823e3d90fd5b6108c690883d8a116101eb576101db8183610b28565b50386107ef565b506108d736610bc6565b9094918451936101f3808601908682106001600160401b03831117610aba57908691610de28339898152602096879103019082f08015610ab0576001600160a01b03169291908390600080516020610fd583398151915290879061093a84610cd8565b8951908152a28464e8d4a51000875198600080516020610ff58339815191528a80610965839d610d15565b0390a1610987895194859384936353266bbb60e01b85520490308a8501610c51565b03818b6108005af19081610a93575b50610a7e5785608086518781526008888201526764656c656761746560c01b60608201528987820152a15b8680808084865af13d15610a79573d6109d981610b5f565b906109e688519283610b28565b815288863d92013e5b15610a42579183917ffb17d0033e42e6a76759d2c7c2795a304dfbba80679160ae60dc91aad4966e52869560019560809851908152a2835193808552840152631cd95b9960e21b6060840152820152a180f35b845162461bcd60e51b8152808401859052601160248201527015985b1d59481cd95b990819985a5b1959607a1b6044820152606490fd5b6109ef565b85855180610a8b81610db7565b0390a16109c1565b610aa990863d88116101eb576101db8183610b28565b5038610996565b86513d8a823e3d90fd5b634e487b7160e01b8a526041865260248afd5b509034610af7576020366003190112610af7573591805483101561051c575061054a602092610afb565b8280fd5b906000918254811015610b145782805260208320019190565b634e487b7160e01b83526032600452602483fd5b90601f801991011681019081106001600160401b03821117610b4957604052565b634e487b7160e01b600052604160045260246000fd5b6001600160401b038111610b4957601f01601f191660200190565b81601f82011215610bc157803590610b9182610b5f565b92610b9f6040519485610b28565b82845260208383010111610bc157816000926020809301838601378301015290565b600080fd5b906080600319830112610bc15760043591602435906001600160401b038211610bc157610bf591600401610b7a565b906044359060643590565b6080600319820112610bc157600435906001600160401b038211610bc157610c2a91600401610b7a565b90602435906044359060643590565b90816020910312610bc157518015158103610bc15790565b9392919060018060a01b03168452602060608186015281519182606087015260005b838110610c995750505060808160008260409488010152601f8019910116850101930152565b818101830151878201608001528201610c73565b9060408252600960408301526864656c65676174653160b81b60608301526001602060808401930152565b600054600160401b811015610b4957806001610cf79201600055610afb565b819291549060031b9160018060a01b03809116831b921b1916179055565b9060408252600660408301526563726561746560d01b60608301526001602060808401930152565b90816020910312610bc157516001600160a01b0381168103610bc15790565b906040825260076040830152666372656174653160c81b60608301526001602060808401930152565b9060408252601060408301526f18dc99585d194c57dc995d995c9d195960821b60608301526000602060808401930152565b9060408252600860408301526764656c656761746560c01b6060830152600160206080840193015256fe6080601f6101f338819003918201601f19168301916001600160401b038311848410176100e0578084926020946040528339810103126100db575180151581036100db57610096573360018060a01b03196001541617600155346000556040513481527fb263f5c1dda4b5b44a8d5658a105c64b6ec61c79463b79a1d0052a834d00fdc460203392a260405160fc90816100f78239f35b60405162461bcd60e51b815260206004820152601e60248201527f496e74656e74696f6e616c20636f6e7374727563746f722072657665727400006044820152606490fd5b600080fd5b634e487b7160e01b600052604160045260246000fdfe60808060405260043610156040575b503615601957600080fd5b600054348101809111602a57600055005b634e487b7160e01b600052601160045260246000fd5b600090813560e01c90816302d05d3f14609f575080632096525514608457633fa4f24503600e57346081578060031936011260815760209054604051908152f35b80fd5b50346081578060031936011260815760209054604051908152f35b90503460c2578160031936011260c2576001546001600160a01b03168152602090f35b5080fdfea2646970667358221220d21dae735f8bd27e93e963f6caaa38336d387a65ef5055b60b5b67a5ea9bc79064736f6c634300081400331dc05c1d6a563dddb6c22082af72b54ec2f0207ceb55db5d13cdabc208f303a99f4d25774676d497fe3d8c1e43709b68b186fad01b05798c1410a178ff4ed7d0a2646970667358221220d240419af0d6f7c5730c6adddac161e3c233245911fa32bb94dbc84c12c08f3f64736f6c63430008140033",
  "linkReferences": {},
  "deployedLinkReferences": {}
}