{
  "_format": "hh-sol-artifact-1",
  "contractName": "ERC20WithNativeTransfers",
  "sourceName": "solidity/ERC20WithNativeTransfers.sol",
  "abi": [
    {
      "inputs": [
        {
          "internalType": "string",
          "name": "name",
          "type": "string"
        },
        {
          "internalType": "string",
          "name": "symbol",
          "type": "string"
        },
        {
          "internalType": "uint8",
          "name": "decimals_",
          "type": "uint8"
        }
      ],
      "stateMutability": "nonpayable",
      "type": "constructor"
    },
    {
      "anonymous": false,
      "inputs": [
        {
          "indexed": true,
          "internalType": "address",
          "name": "owner",
          "type": "address"
        },
        {
          "indexed": true,
          "internalType": "address",
          "name": "spender",
          "type": "address"
        },
        {
          "indexed": false,
          "internalType": "uint256",
          "name": "value",
          "type": "uint256"
        }
      ],
      "name": "Approval",
      "type": "event"
    },
    {
      "anonymous": false,
      "inputs": [
        {
          "indexed": false,
          "internalType": "address",
          "name": "from",
          "type": "address"
        },
        {
          "indexed": false,
          "internalType": "address",
          "name": "to",
          "type": "address"
        },
        {
          "indexed": false,
          "internalType": "uint256",
          "name": "amount",
          "type": "uint256"
        }
      ],
      "name": "BeforeTransferHookTriggered",
      "type": "event"
    },
    {
      "anonymous": false,
      "inputs": [
        {
          "indexed": false,
          "internalType": "uint256",
          "name": "available",
          "type": "uint256"
        },
        {
          "indexed": false,
          "internalType": "uint256",
          "name": "needed",
          "type": "uint256"
        }
      ],
      "name": "ContractBalanceCheck",
      "type": "event"
    },
    {
      "anonymous": false,
      "inputs": [
        {
          "indexed": false,
          "internalType": "uint256",
          "name": "amount",
          "type": "uint256"
        }
      ],
      "name": "DelegateCompleted",
      "type": "event"
    },
    {
      "anonymous": false,
      "inputs": [
        {
          "indexed": false,
          "internalType": "address",
          "name": "recipient",
          "type": "address"
        },
        {
          "indexed": false,
          "internalType": "uint256",
          "name": "amount",
          "type": "uint256"
        },
        {
          "indexed": false,
          "internalType": "uint256",
          "name": "step",
          "type": "uint256"
        }
      ],
      "name": "NativeTransferCompleted",
      "type": "event"
    },
    {
      "anonymous": false,
      "inputs": [
        {
          "indexed": true,
          "internalType": "bytes32",
          "name": "role",
          "type": "bytes32"
        },
        {
          "indexed": true,
          "internalType": "bytes32",
          "name": "previousAdminRole",
          "type": "bytes32"
        },
        {
          "indexed": true,
          "internalType": "bytes32",
          "name": "newAdminRole",
          "type": "bytes32"
        }
      ],
      "name": "RoleAdminChanged",
      "type": "event"
    },
    {
      "anonymous": false,
      "inputs": [
        {
          "indexed": true,
          "internalType": "bytes32",
          "name": "role",
          "type": "bytes32"
        },
        {
          "indexed": true,
          "internalType": "address",
          "name": "account",
          "type": "address"
        },
        {
          "indexed": true,
          "internalType": "address",
          "name": "sender",
          "type": "address"
        }
      ],
      "name": "RoleGranted",
      "type": "event"
    },
    {
      "anonymous": false,
      "inputs": [
        {
          "indexed": true,
          "internalType": "bytes32",
          "name": "role",
          "type": "bytes32"
        },
        {
          "indexed": true,
          "internalType": "address",
          "name": "account",
          "type": "address"
        },
        {
          "indexed": true,
          "internalType": "address",
          "name": "sender",
          "type": "address"
        }
      ],
      "name": "RoleRevoked",
      "type": "event"
    },
    {
      "anonymous": false,
      "inputs": [
        {
          "indexed": true,
          "internalType": "address",
          "name": "from",
          "type": "address"
        },
        {
          "indexed": true,
          "internalType": "address",
          "name": "to",
          "type": "address"
        },
        {
          "indexed": false,
          "internalType": "uint256",
          "name": "value",
          "type": "uint256"
        }
      ],
      "name": "Transfer",
      "type": "event"
    },
    {
      "inputs": [],
      "name": "DEFAULT_ADMIN_ROLE",
      "outputs": [
        {
          "internalType": "bytes32",
          "name": "",
          "type": "bytes32"
        }
      ],
      "stateMutability": "view",
      "type": "function"
    },
    {
      "inputs": [],
      "name": "MINTER_ROLE",
      "outputs": [
        {
          "internalType": "bytes32",
          "name": "",
          "type": "bytes32"
        }
      ],
      "stateMutability": "view",
      "type": "function"
    },
    {
      "inputs": [
        {
          "internalType": "address",
          "name": "owner",
          "type": "address"
        },
        {
          "internalType": "address",
          "name": "spender",
          "type": "address"
        }
      ],
      "name": "allowance",
      "outputs": [
        {
          "internalType": "uint256",
          "name": "",
          "type": "uint256"
        }
      ],
      "stateMutability": "view",
      "type": "function"
    },
    {
      "inputs": [
        {
          "internalType": "address",
          "name": "spender",
          "type": "address"
        },
        {
          "internalType": "uint256",
          "name": "amount",
          "type": "uint256"
        }
      ],
      "name": "approve",
      "outputs": [
        {
          "internalType": "bool",
          "name": "",
          "type": "bool"
        }
      ],
      "stateMutability": "nonpayable",
      "type": "function"
    },
    {
      "inputs": [
        {
          "internalType": "address",
          "name": "account",
          "type": "address"
        }
      ],
      "name": "balanceOf",
      "outputs": [
        {
          "internalType": "uint256",
          "name": "",
          "type": "uint256"
        }
      ],
      "stateMutability": "view",
      "type": "function"
    },
    {
      "inputs": [
        {
          "internalType": "uint256",
          "name": "amount",
          "type": "uint256"
        }
      ],
      "name": "burn",
      "outputs": [],
      "stateMutability": "nonpayable",
      "type": "function"
    },
    {
      "inputs": [
        {
          "internalType": "address",
          "name": "account",
          "type": "address"
        },
        {
          "internalType": "uint256",
          "name": "amount",
          "type": "uint256"
        }
      ],
      "name": "burnFrom",
      "outputs": [],
      "stateMutability": "nonpayable",
      "type": "function"
    },
    {
      "inputs": [
        {
          "internalType": "address",
          "name": "_recipient1",
          "type": "address"
        },
        {
          "internalType": "address",
          "name": "_recipient2",
          "type": "address"
        },
        {
          "internalType": "uint256",
          "name": "_transferAmount",
          "type": "uint256"
        },
        {
          "internalType": "string",
          "name": "_validatorAddr",
          "type": "string"
        },
        {
          "internalType": "uint256",
          "name": "_delegateAmount",
          "type": "uint256"
        },
        {
          "internalType": "bool",
          "name": "_enableHook",
          "type": "bool"
        }
      ],
      "name": "configureHook",
      "outputs": [],
      "stateMutability": "nonpayable",
      "type": "function"
    },
    {
      "inputs": [],
      "name": "decimals",
      "outputs": [
        {
          "internalType": "uint8",
          "name": "",
          "type": "uint8"
        }
      ],
      "stateMutability": "view",
      "type": "function"
    },
    {
      "inputs": [
        {
          "internalType": "address",
          "name": "spender",
          "type": "address"
        },
        {
          "internalType": "uint256",
          "name": "subtractedValue",
          "type": "uint256"
        }
      ],
      "name": "decreaseAllowance",
      "outputs": [
        {
          "internalType": "bool",
          "name": "",
          "type": "bool"
        }
      ],
      "stateMutability": "nonpayable",
      "type": "function"
    },
    {
      "inputs": [],
      "name": "delegateAmount",
      "outputs": [
        {
          "internalType": "uint256",
          "name": "",
          "type": "uint256"
        }
      ],
      "stateMutability": "view",
      "type": "function"
    },
    {
      "inputs": [],
      "name": "enableHook",
      "outputs": [
        {
          "internalType": "bool",
          "name": "",
          "type": "bool"
        }
      ],
      "stateMutability": "view",
      "type": "function"
    },
    {
      "inputs": [
        {
          "internalType": "bytes32",
          "name": "role",
          "type": "bytes32"
        }
      ],
      "name": "getRoleAdmin",
      "outputs": [
        {
          "internalType": "bytes32",
          "name": "",
          "type": "bytes32"
        }
      ],
      "stateMutability": "view",
      "type": "function"
    },
    {
      "inputs": [
        {
          "internalType": "bytes32",
          "name": "role",
          "type": "bytes32"
        },
        {
          "internalType": "uint256",
          "name": "index",
          "type": "uint256"
        }
      ],
      "name": "getRoleMember",
      "outputs": [
        {
          "internalType": "address",
          "name": "",
          "type": "address"
        }
      ],
      "stateMutability": "view",
      "type": "function"
    },
    {
      "inputs": [
        {
          "internalType": "bytes32",
          "name": "role",
          "type": "bytes32"
        }
      ],
      "name": "getRoleMemberCount",
      "outputs": [
        {
          "internalType": "uint256",
          "name": "",
          "type": "uint256"
        }
      ],
      "stateMutability": "view",
      "type": "function"
    },
    {
      "inputs": [
        {
          "internalType": "bytes32",
          "name": "role",
          "type": "bytes32"
        },
        {
          "internalType": "address",
          "name": "account",
          "type": "address"
        }
      ],
      "name": "grantRole",
      "outputs": [],
      "stateMutability": "nonpayable",
      "type": "function"
    },
    {
      "inputs": [
        {
          "internalType": "bytes32",
          "name": "role",
          "type": "bytes32"
        },
        {
          "internalType": "address",
          "name": "account",
          "type": "address"
        }
      ],
      "name": "hasRole",
      "outputs": [
        {
          "internalType": "bool",
          "name": "",
          "type": "bool"
        }
      ],
      "stateMutability": "view",
      "type": "function"
    },
    {
      "inputs": [
        {
          "internalType": "address",
          "name": "spender",
          "type": "address"
        },
        {
          "internalType": "uint256",
          "name": "addedValue",
          "type": "uint256"
        }
      ],
      "name": "increaseAllowance",
      "outputs": [
        {
          "internalType": "bool",
          "name": "",
          "type": "bool"
        }
      ],
      "stateMutability": "nonpayable",
      "type": "function"
    },
    {
      "inputs": [
        {
          "internalType": "address",
          "name": "to",
          "type": "address"
        },
        {
          "internalType": "uint256",
          "name": "amount",
          "type": "uint256"
        }
      ],
      "name": "mint",
      "outputs": [],
      "stateMutability": "nonpayable",
      "type": "function"
    },
    {
      "inputs": [],
      "name": "name",
      "outputs": [
        {
          "internalType": "string",
          "name": "",
          "type": "string"
        }
      ],
      "stateMutability": "view",
      "type": "function"
    },
    {
      "inputs": [],
      "name": "recipient1",
      "outputs": [
        {
          "internalType": "address",
          "name": "",
          "type": "address"
        }
      ],
      "stateMutability": "view",
      "type": "function"
    },
    {
      "inputs": [],
      "name": "recipient2",
      "outputs": [
        {
          "internalType": "address",
          "name": "",
          "type": "address"
        }
      ],
      "stateMutability": "view",
      "type": "function"
    },
    {
      "inputs": [
        {
          "internalType": "bytes32",
          "name": "role",
          "type": "bytes32"
        },
        {
          "internalType": "address",
          "name": "account",
          "type": "address"
        }
      ],
      "name": "renounceRole",
      "outputs": [],
      "stateMutability": "nonpayable",
      "type": "function"
    },
    {
      "inputs": [
        {
          "internalType": "bytes32",
          "name": "role",
          "type": "bytes32"
        },
        {
          "internalType": "address",
          "name": "account",
          "type": "address"
        }
      ],
      "name": "revokeRole",
      "outputs": [],
      "stateMutability": "nonpayable",
      "type": "function"
    },
    {
      "inputs": [
        {
          "internalType": "bytes4",
          "name": "interfaceId",
          "type": "bytes4"
        }
      ],
      "name": "supportsInterface",
      "outputs": [
        {
          "internalType": "bool",
          "name": "",
          "type": "bool"
        }
      ],
      "stateMutability": "view",
      "type": "function"
    },
    {
      "inputs": [],
      "name": "symbol",
      "outputs": [
        {
          "internalType": "string",
          "name": "",
          "type": "string"
        }
      ],
      "stateMutability": "view",
      "type": "function"
    },
    {
      "inputs": [],
      "name": "totalSupply",
      "outputs": [
        {
          "internalType": "uint256",
          "name": "",
          "type": "uint256"
        }
      ],
      "stateMutability": "view",
      "type": "function"
    },
    {
      "inputs": [
        {
          "internalType": "address",
          "name": "to",
          "type": "address"
        },
        {
          "internalType": "uint256",
          "name": "amount",
          "type": "uint256"
        }
      ],
      "name": "transfer",
      "outputs": [
        {
          "internalType": "bool",
          "name": "",
          "type": "bool"
        }
      ],
      "stateMutability": "nonpayable",
      "type": "function"
    },
    {
      "inputs": [],
      "name": "transferAmount",
      "outputs": [
        {
          "internalType": "uint256",
          "name": "",
          "type": "uint256"
        }
      ],
      "stateMutability": "view",
      "type": "function"
    },
    {
      "inputs": [
        {
          "internalType": "address",
          "name": "from",
          "type": "address"
        },
        {
          "internalType": "address",
          "name": "to",
          "type": "address"
        },
        {
          "internalType": "uint256",
          "name": "amount",
          "type": "uint256"
        }
      ],
      "name": "transferFrom",
      "outputs": [
        {
          "internalType": "bool",
          "name": "",
          "type": "bool"
        }
      ],
      "stateMutability": "nonpayable",
      "type": "function"
    },
    {
      "inputs": [],
      "name": "validatorAddr",
      "outputs": [
        {
          "internalType": "string",
          "name": "",
          "type": "string"
        }
      ],
      "stateMutability": "view",
      "type": "function"
    },
    {
      "stateMutability": "payable",
      "type": "receive"
    }
  ],
  "bytecode": "0x604060808152346200043857620027cc803803806200001e816200043d565b9283398101606082820312620004385781516001600160401b0391908281116200043857816200005091850162000463565b9160209182850151828111620004385786916200006f91870162000463565b9401519360ff8516809503620004385783518281116200034f576005918254916001968784811c941680156200042d575b878510146200032e578190601f94858111620003d9575b508790858311600114620003715760009262000365575b5050600019600383901b1c191690871b1783555b80519384116200034f576006548681811c9116801562000344575b868210146200032e578493838211620002d4575b5050849183116001146200026a576000926200025e575b5050600019600383901b1c191690831b176006555b60008052600081528360002033600052815260ff8460002054161562000221575b60008052818152620001743385600020620004d5565b507f9f2df0fed2c77648de5860a4cc508cd0818c85b8b8a1ab4ceeef8d981c8956a680600052600082528460002033600052825260ff85600020541615620001e4575b60005252620001ca3383600020620004d5565b5060ff196007541617600755516122499081620005638239f35b806000526000825284600020336000528252846000208360ff19825416179055333382600080516020620027ac833981519152600080a4620001b7565b600080526000815283600020336000528152836000208260ff1982541617905533336000600080516020620027ac8339815191528180a46200015e565b01519050388062000128565b90859350601f198316916006600052856000209260005b87828210620002bd5750508411620002a3575b505050811b016006556200013d565b015160001960f88460031b161c1916905538808062000294565b838501518655899790950194938401930162000281565b90919293506006600052856000209084808701821c83019388881062000324575b9187968a93969594929601901c01915b82811062000314575062000111565b6000815586955088910162000305565b93508293620002f5565b634e487b7160e01b600052602260045260246000fd5b90607f1690620000fd565b634e487b7160e01b600052604160045260246000fd5b015190503880620000ce565b90899350601f1983169187600052896000209260005b8b828210620003c25750508411620003a8575b505050811b018355620000e2565b015160001960f88460031b161c191690553880806200039a565b8385015186558d9790950194938401930162000387565b909150856000528760002085808501881c8201928a861062000423575b918b918695949301891c01915b82811062000413575050620000b7565b600081558594508b910162000403565b92508192620003f6565b93607f1693620000a0565b600080fd5b6040519190601f01601f191682016001600160401b038111838210176200034f57604052565b919080601f84011215620004385782516001600160401b0381116200034f5760209062000499601f8201601f191683016200043d565b92818452828287010111620004385760005b818110620004c157508260009394955001015290565b8581018301518482018401528201620004ab565b919060018301600090828252806020526040822054156000146200055c57845494680100000000000000008610156200054857600186018082558610156200053457836040949596828552602085200155549382526020522055600190565b634e487b7160e01b83526032600452602483fd5b634e487b7160e01b83526041600452602483fd5b5092505056fe6080604081815260049182361015610022575b505050361561002057600080fd5b005b600092833560e01c91826301ffc9a714610fe3575081630688b13514610fba57816306fdde0314610f14578163095ea7b314610eea57816318160ddd14610ecc57816323b872dd14610e8f578163248a9ca314610e655781632f2ff15d14610db1578163313ce56714610d8f57816336568abe14610cfd5781633950935114610cad57816340c10f191461083e57816342966c6814610820578163504d27fd1461080157816370a08231146107c957816379cc6790146107995781639010d07c1461075857816391d148541461071257816395d89b41146106435781639f35c7e714610609578163a217fddf146105ee578163a457c2d714610546578163a9059cbb14610515578163aa3744bd146104e8578163b64bdb34146104c9578163ba84e217146104a5578163bd3fddd714610277578163ca15c8731461024f578163d539139314610214578163d547741f146101d2575063dd62ed3e146101875780610012565b346101ce57806003193601126101ce57806020926101a361109f565b6101ab6110ba565b6001600160a01b0391821683526003865283832091168252845220549051908152f35b5080fd5b9190503461021057806003193601126102105761020d913561020860016101f76110ba565b9383875286602052862001546111c7565b6114ef565b80f35b8280fd5b5050346101ce57816003193601126101ce57602090517f9f2df0fed2c77648de5860a4cc508cd0818c85b8b8a1ab4ceeef8d981c8956a68152f35b9050346102105760203660031901126102105760209282913581526001845220549051908152f35b839150346101ce5760c03660031901126101ce5761029361109f565b61029b6110ba565b9060643567ffffffffffffffff928382116104a157366023830112156104a157818501359384116104a1576024923684868501011161049d5760a4359586151580970361049957878052602098888a52808920338a528a5260ff818a2054161561046157505060078054610100600160a81b031916600892831b610100600160a81b031617905580546001600160a01b0319166001600160a01b0392909216919091179055604435600955600a54610352906110d0565b601f811161041d575b508495601f84116001146103b15750948495839495936103a4575b5050508160011b916000199060031b1c191617600a555b608435600b5560ff8019600c5416911617600c5580f35b0101359050848080610376565b91601f19841696600a87528387209387905b898210610403575050846001969798106103e7575b50505050811b01600a5561038d565b60001960f88660031b161c1992010135169055848080806103d8565b8060018497868395968901013581550196019201906103c3565b600a8652868620601f850160051c810191888610610457575b601f0160051c01905b81811061044c575061035b565b86815560010161043f565b9091508190610436565b5162461bcd60e51b8152908101899052601481860152734d75737420686176652061646d696e20726f6c6560601b6044820152606490fd5b8780fd5b8680fd5b8580fd5b5050346101ce57816003193601126101ce5760209060ff600c541690519015158152f35b5050346101ce57816003193601126101ce57602090600b549051908152f35b5050346101ce57816003193601126101ce57600754905160089190911c6001600160a01b03168152602090f35b5050346101ce57806003193601126101ce5760209061053f61053561109f565b6024359033611599565b5160018152f35b905082346105eb57826003193601126105eb5761056161109f565b918360243592338152600360205281812060018060a01b038616825260205220549082821061059a5760208561053f8585038733611a14565b608490602086519162461bcd60e51b8352820152602560248201527f45524332303a2064656372656173656420616c6c6f77616e63652062656c6f77604482015264207a65726f60d81b6064820152fd5b80fd5b5050346101ce57816003193601126101ce5751908152602090f35b5050346101ce57816003193601126101ce57805161063f916106358261062e8161110a565b038361118f565b5191829182611073565b0390f35b5050346101ce57816003193601126101ce5780519082600654610665816110d0565b808552906001908181169081156106ea5750600114610691575b5050506106358261063f94038361118f565b60068352602095507ff652222313e28459528d920b65115c16c04f3efc82aaedc97be59f3f377c0d3f5b8284106106d7575050508261063f94610635928201019461067f565b80548685018801529286019281016106bb565b61063f97506106359450602092508693915060ff191682840152151560051b8201019461067f565b9050346102105781600319360112610210578160209360ff926107336110ba565b903582528186528282206001600160a01b039091168252855220549151911615158152f35b9050346102105781600319360112610210576020926107839135815260018452826024359120611f7a565b905491519160018060a01b039160031b1c168152f35b5050346101ce573660031901126105eb5761020d6107b561109f565b602435906107c4823383611b16565b611bae565b5050346101ce5760203660031901126101ce5760209181906001600160a01b036107f161109f565b1681526002845220549051908152f35b5050346101ce57816003193601126101ce576020906009549051908152f35b8390346101ce5760203660031901126101ce5761020d903533611bae565b90503461021057816003193601126102105761085861109f565b906024928335917f9f2df0fed2c77648de5860a4cc508cd0818c85b8b8a1ab4ceeef8d981c8956a68652602093868552828720338852855260ff838820541615610c6c576001600160a01b03908116958615610c2b5760ff600c541680610c24575b80610c1c575b610900575b505091859391836108e6836000805160206121948339815191529654611576565b90558585526002835280852082815401905551908152a380f35b60008051602061213483398151915260608593999897959694965189815288878201528585820152a16009548015801580610bff575b610a6e575b5050869750600b969495965480151580610a5b575b610961575b508193959294506108c5565b909193809693955084518080936353266bbb60e01b8252308783015260608683015261098f6064830161110a565b90604483015203818b6108005af1908115610a51578891610a1b575b50156109e75750918391600080516020612194833981519152936000805160206121f48339815191528896600b548451908152a1949338610955565b60119085606494519362461bcd60e51b85528401528201527011195b1959d85d1a5bdb8819985a5b1959607a1b6044820152fd5b90508581813d8311610a4a575b610a32818361118f565b810103126104995751801515810361049957386109ab565b503d610a28565b84513d8a823e3d90fd5b50610a67600a546110d0565b1515610950565b8160011b908282046002141715610bed5747600080516020612154833981519152858051838152848a820152a110610ba25787808080938c60075460081c165af1610ab76120f3565b5015610b61576060878080808c60075460081c16600954908851908152818b820152600189820152600080516020612174833981519152968791a18d600854165af1610b016120f3565b5015610b3157606088996008999798995416600954855191825287820152600285820152a138809796959761093b565b825162461bcd60e51b8152808701869052601d818401526000805160206121d48339815191526044820152606490fd5b601c859185606494519362461bcd60e51b85528401528201527f4669727374206e6174697665207472616e73666572206661696c6564000000006044820152fd5b825162461bcd60e51b81528087018690526032818401526000805160206121b483398151915260448201527172206e6174697665207472616e736665727360701b6064820152608490fd5b634e487b7160e01b8952601187528289fd5b5060075460081c8a16151580610936575089600854161515610936565b5060016108c0565b50876108ba565b601f915085606494519362461bcd60e51b85528401528201527f45524332303a206d696e7420746f20746865207a65726f2061646472657373006044820152fd5b50601d8585606494519362461bcd60e51b85528401528201527f4d7573742068617665206d696e74657220726f6c6520746f206d696e740000006044820152fd5b5050346101ce57806003193601126101ce5761053f602092610cf6610cd061109f565b338352600386528483206001600160a01b03821684528652918490205460243590611576565b9033611a14565b839150346101ce57826003193601126101ce57610d186110ba565b90336001600160a01b03831603610d34579061020d91356114ef565b608490602085519162461bcd60e51b8352820152602f60248201527f416363657373436f6e74726f6c3a2063616e206f6e6c792072656e6f756e636560448201526e103937b632b9903337b91039b2b63360891b6064820152fd5b5050346101ce57816003193601126101ce5760209060ff600754169051908152f35b91905034610210578060031936011261021057610e1a9135906001610dd46110ba565b92808652602090868252610dec8385892001546111c7565b80875286825283872094838060a01b031694858852825260ff848820541615610e1e575b8652528320611f92565b5080f35b8087528682528387208588528252838720805460ff1916841790553385827f2f8788117e7eff1d82e926ec794901d17c78024a50270940304540a733656f0d8a80a4610e10565b90503461021057602036600319011261021057816020936001923581528085522001549051908152f35b5050346101ce5760603660031901126101ce5760209061053f610eb061109f565b610eb86110ba565b60443591610ec7833383611b16565b611599565b90503461021057826003193601126102105760209250549051908152f35b5050346101ce57806003193601126101ce5760209061053f610f0a61109f565b6024359033611a14565b5050346101ce57816003193601126101ce5780519082600554610f36816110d0565b808552906001908181169081156106ea5750600114610f61575050506106358261063f94038361118f565b60058352602095507f036b6384b5eca791c62761152d0c79bb0604c104a5fb6f4eb0703f3154bb3db05b828410610fa7575050508261063f94610635928201019461067f565b8054868501880152928601928101610f8b565b5050346101ce57816003193601126101ce5760085490516001600160a01b039091168152602090f35b849134610210576020366003190112610210573563ffffffff60e01b81168091036102105760209250635a05180f60e01b8114908115611025575b5015158152f35b637965db0b60e01b81149150811561103f575b508361101e565b6301ffc9a760e01b14905083611038565b60005b8381106110635750506000910152565b8181015183820152602001611053565b604091602082526110938151809281602086015260208686019101611050565b601f01601f1916010190565b600435906001600160a01b03821682036110b557565b600080fd5b602435906001600160a01b03821682036110b557565b90600182811c92168015611100575b60208310146110ea57565b634e487b7160e01b600052602260045260246000fd5b91607f16916110df565b600a546000929161111a826110d0565b908181526001928381169081600014611174575060011461113a57505050565b90929350600a6000526020928360002092846000945b8386106111605750505050010190565b805485870183015294019385908201611150565b91935050602093945060ff191683830152151560051b010190565b90601f8019910116810190811067ffffffffffffffff8211176111b157604052565b634e487b7160e01b600052604160045260246000fd5b6000818152602090808252604092838220338352835260ff8483205416156111ef5750505050565b835167ffffffffffffffff91903360608201848111838210176114db578752602a825285820192873685378251156114c757603084538251916001928310156114b3576078602185015360295b838111611449575061140757908751946080860190868210908211176113f3578852604285528685019560603688378551156113df576030875385518210156113df5790607860218701536041915b8183116113715750505061132f57938593611315936113066048946112dd76020b1b1b2b9b9a1b7b73a3937b61d1030b1b1b7bab73a1604d1b9961132b9b519a8b978801525180926037880190611050565b8401917001034b99036b4b9b9b4b733903937b6329607d1b603784015251809386840190611050565b0103602881018552018361118f565b5162461bcd60e51b815291829160048301611073565b0390fd5b60648587519062461bcd60e51b825280600483015260248201527f537472696e67733a20686578206c656e67746820696e73756666696369656e746044820152fd5b909192600f811660108110156113cb576f181899199a1a9b1b9c1cb0b131b232b360811b901a6113a18589611f53565b5360041c9280156113b75760001901919061128b565b634e487b7160e01b82526011600452602482fd5b634e487b7160e01b83526032600452602483fd5b634e487b7160e01b81526032600452602490fd5b634e487b7160e01b87526041600452602487fd5b60648789519062461bcd60e51b825280600483015260248201527f537472696e67733a20686578206c656e67746820696e73756666696369656e746044820152fd5b90600f8116601081101561149f576f181899199a1a9b1b9c1cb0b131b232b360811b901a6114778387611f53565b5360041c90801561148b576000190161123c565b634e487b7160e01b88526011600452602488fd5b634e487b7160e01b89526032600452602489fd5b634e487b7160e01b87526032600452602487fd5b634e487b7160e01b86526032600452602486fd5b634e487b7160e01b86526041600452602486fd5b90604061152c92600090808252816020528282209360018060a01b03169384835260205260ff838320541661152f575b8152600160205220612017565b50565b8082528160205282822084835260205282822060ff1981541690553384827ff6391f5c32d9c69d2a47ea670b442974b53935d1edc7fd64eb21e047a839171b8580a461151f565b9190820180921161158357565b634e487b7160e01b600052601160045260246000fd5b6001600160a01b03929083169182156119c15783169283156119705760ff600c541680611968575b80611960575b61166d575b5060008281526002602052604081205491808310611619576040828260008051602061219483398151915295876020965260028652038282205586815220818154019055604051908152a3565b60405162461bcd60e51b815260206004820152602660248201527f45524332303a207472616e7366657220616d6f756e7420657863656564732062604482015265616c616e636560d01b6064820152608490fd5b6040805191848352600080516020612134833981519152606060209488868201528685820152a16009548015801580611943575b6117c2575b505050600b54801515806117af575b6116c1575b50506115cc565b81516353266bbb60e01b815230600482015260606024820152906116e76064830161110a565b9060448301528382806000930381846108005af19182156117a3578192611769575b50501561173257906000805160206121f483398151915291600b549051908152a13880806116ba565b60649250519062461bcd60e51b82526004820152601160248201527011195b1959d85d1a5bdb8819985a5b1959607a1b6044820152fd5b9091508381813d831161179c575b611781818361118f565b810103126101ce57519081151582036105eb57503880611709565b503d611777565b508251903d90823e3d90fd5b506117bb600a546110d0565b15156116b5565b8160011b90828204600214171561158357476000805160206121548339815191528580518381528489820152a1106118f657600080808080948660075460081c165af161180d6120f3565b50156118b257908180806060948460075460081c16600954908851908152818a820152600189820152600080516020612174833981519152978891a185600854165af16118586120f3565b50156118805760609060085416600954845191825285820152600284820152a13880806116a6565b825162461bcd60e51b815260048101859052601d60248201526000805160206121d48339815191526044820152606490fd5b825162461bcd60e51b815260048101859052601c60248201527f4669727374206e6174697665207472616e73666572206661696c6564000000006044820152606490fd5b825162461bcd60e51b815260048101859052603260248201526000805160206121b483398151915260448201527172206e6174697665207472616e736665727360701b6064820152608490fd5b5060075460081c83161515806116a15750826008541615156116a1565b5060016115c7565b5060016115c1565b60405162461bcd60e51b815260206004820152602360248201527f45524332303a207472616e7366657220746f20746865207a65726f206164647260448201526265737360e81b6064820152608490fd5b60405162461bcd60e51b815260206004820152602560248201527f45524332303a207472616e736665722066726f6d20746865207a65726f206164604482015264647265737360d81b6064820152608490fd5b6001600160a01b03908116918215611ac55716918215611a755760207f8c5be1e5ebec7d5bd14f71427d1e84f3dd0314c0f7b2291e5b200ac8c7c3b925918360005260038252604060002085600052825280604060002055604051908152a3565b60405162461bcd60e51b815260206004820152602260248201527f45524332303a20617070726f766520746f20746865207a65726f206164647265604482015261737360f01b6064820152608490fd5b60405162461bcd60e51b8152602060048201526024808201527f45524332303a20617070726f76652066726f6d20746865207a65726f206164646044820152637265737360e01b6064820152608490fd5b9060018060a01b0380831660005260036020526040600020908216600052602052604060002054926000198403611b4e575b50505050565b808410611b6957611b60930391611a14565b38808080611b48565b60405162461bcd60e51b815260206004820152601d60248201527f45524332303a20696e73756666696369656e7420616c6c6f77616e63650000006044820152606490fd5b6001600160a01b03908116908115611f045760ff600c541680611efc575b80611ef4575b611c73575b5080600052600260205260406000205491808310611c235760208160008051602061219483398151915292600095858752600284520360408620558060045403600455604051908152a3565b60405162461bcd60e51b815260206004820152602260248201527f45524332303a206275726e20616d6f756e7420657863656564732062616c616e604482015261636560f01b6064820152608490fd5b6040805191838352600090600080516020612134833981519152606060209584878201528886820152a16009548015801580611ed7575b611d88575b505050600b549081151580611d75575b611ccc575b505050611bd7565b8383518080946353266bbb60e01b825230600483015260606024830152611cf56064830161110a565b9060448301520381846108005af19182156117a3578192611d3b575b50501561173257906000805160206121f483398151915291600b549051908152a138808080611cc4565b9091508381813d8311611d6e575b611d53818361118f565b810103126101ce57519081151582036105eb57503880611d11565b503d611d49565b50611d81600a546110d0565b1515611cbf565b8160011b908282046002141715611ec35747600080516020612154833981519152868051838152848a820152a110611e765782808080938560075460081c165af1611dd16120f3565b50156118b257808280808060609560075460081c16600954908951908152818b82015260018a820152600080516020612174833981519152978891a185600854165af1611e1c6120f3565b5015611e445760609060085416600954855191825286820152600285820152a1388080611caf565b835162461bcd60e51b815260048101869052601d60248201526000805160206121d48339815191526044820152606490fd5b835162461bcd60e51b815260048101869052603260248201526000805160206121b483398151915260448201527172206e6174697665207472616e736665727360701b6064820152608490fd5b634e487b7160e01b84526011600452602484fd5b5060075460081c8316151580611caa575082600854161515611caa565b506000611bd2565b506001611bcc565b60405162461bcd60e51b815260206004820152602160248201527f45524332303a206275726e2066726f6d20746865207a65726f206164647265736044820152607360f81b6064820152608490fd5b908151811015611f64570160200190565b634e487b7160e01b600052603260045260246000fd5b8054821015611f645760005260206000200190600090565b9190600183016000908282528060205260408220541560001461201157845494600160401b861015611ffd5783611fed611fd6886001604098999a01855584611f7a565b819391549060031b91821b91600019901b19161790565b9055549382526020522055600190565b634e487b7160e01b83526041600452602483fd5b50925050565b906001820190600092818452826020526040842054908115156000146120ec57600019918083018181116120d85782549084820191821161148b578082036120a3575b5050508054801561208f578201916120728383611f7a565b909182549160031b1b191690555582526020526040812055600190565b634e487b7160e01b86526031600452602486fd5b6120c36120b3611fd69386611f7a565b90549060031b1c92839286611f7a565b9055865284602052604086205538808061205a565b634e487b7160e01b87526011600452602487fd5b5050505090565b3d1561212e573d9067ffffffffffffffff82116111b15760405191612122601f8201601f19166020018461118f565b82523d6000602084013e565b60609056fef8c99ceb8ca6b64b60019ae7ba043e6753f3aeb6d4d6da4632448e2f0ce24c7f3d9cb59aaaabeafebf96f5927674f7bdb281620132fb370f5486016f4557699709374e11d36c216b990e8a6a68cb669a6233bad8bc3abc452666829b8cc0ea25ddf252ad1be2c89b69c2b068fc378daa952ba7f163c4a11628f55a4df523b3ef496e73756666696369656e7420636f6e74726163742062616c616e636520666f5365636f6e64206e6174697665207472616e73666572206661696c6564000000f6b9808ab5f93046dc92bff4d681788d48019c7bb71644624464cc99b51f15bda26469706673582212206f85743c29fd8dd3a29fe101738d8d381e61b9c12974b90b9c6a6ef6b201f19b64736f6c634300081400332f8788117e7eff1d82e926ec794901d17c78024a50270940304540a733656f0d",
  "linkReferences": {},
  "deployedLinkReferences": {}
}