{
  "_format": "hh-sol-artifact-1",
  "contractName": "ICS20TransferTester",
  "sourceName": "solidity/ICS20TransferTester.sol",
  "abi": [
    {
      "anonymous": false,
      "inputs": [
        {
          "indexed": false,
          "internalType": "string",
          "name": "operation",
          "type": "string"
        },
        {
          "indexed": false,
          "internalType": "bool",
          "name": "success",
          "type": "bool"
        }
      ],
      "name": "OperationCompleted",
      "type": "event"
    },
    {
      "anonymous": false,
      "inputs": [
        {
          "indexed": false,
          "internalType": "string",
          "name": "receiver",
          "type": "string"
        },
        {
          "indexed": false,
          "internalType": "uint256",
          "name": "amount",
          "type": "uint256"
        }
      ],
      "name": "TransferInitiated",
      "type": "event"
    },
    {
      "inputs": [
        {
          "internalType": "address",
          "name": "token",
          "type": "address"
        },
        {
          "internalType": "address",
          "name": "account",
          "type": "address"
        }
      ],
      "name": "getTokenBalance",
      "outputs": [
        {
          "internalType": "uint256",
          "name": "",
          "type": "uint256"
        }
      ],
      "stateMutability": "view",
      "type": "function"
    },
    {
      "inputs": [
        {
          "internalType": "address",
          "name": "token",
          "type": "address"
        },
        {
          "internalType": "address",
          "name": "recipient",
          "type": "address"
        },
        {
          "internalType": "uint256",
          "name": "transferAmount",
          "type": "uint256"
        },
        {
          "internalType": "string",
          "name": "sourcePort",
          "type": "string"
        },
        {
          "internalType": "string",
          "name": "sourceChannel",
          "type": "string"
        },
        {
          "internalType": "string",
          "name": "denom",
          "type": "string"
        },
        {
          "internalType": "uint256",
          "name": "ics20Amount",
          "type": "uint256"
        },
        {
          "internalType": "string",
          "name": "ics20Receiver",
          "type": "string"
        },
        {
          "components": [
            {
              "internalType": "uint64",
              "name": "revisionNumber",
              "type": "uint64"
            },
            {
              "internalType": "uint64",
              "name": "revisionHeight",
              "type": "uint64"
            }
          ],
          "internalType": "struct Height",
          "name": "timeoutHeight",
          "type": "tuple"
        },
        {
          "internalType": "uint64",
          "name": "timeoutTimestamp",
          "type": "uint64"
        }
      ],
      "name": "scenario10_transferICS20TransferRevert",
      "outputs": [],
      "stateMutability": "nonpayable",
      "type": "function"
    },
    {
      "inputs": [
        {
          "internalType": "address",
          "name": "token",
          "type": "address"
        },
        {
          "internalType": "address",
          "name": "recipient",
          "type": "address"
        },
        {
          "internalType": "uint256",
          "name": "transferAmount",
          "type": "uint256"
        },
        {
          "internalType": "string",
          "name": "sourcePort",
          "type": "string"
        },
        {
          "internalType": "string",
          "name": "sourceChannel",
          "type": "string"
        },
        {
          "internalType": "string",
          "name": "denom",
          "type": "string"
        },
        {
          "internalType": "uint256",
          "name": "ics20Amount",
          "type": "uint256"
        },
        {
          "internalType": "string",
          "name": "ics20Receiver",
          "type": "string"
        },
        {
          "components": [
            {
              "internalType": "uint64",
              "name": "revisionNumber",
              "type": "uint64"
            },
            {
              "internalType": "uint64",
              "name": "revisionHeight",
              "type": "uint64"
            }
          ],
          "internalType": "struct Height",
          "name": "timeoutHeight",
          "type": "tuple"
        },
        {
          "internalType": "uint64",
          "name": "timeoutTimestamp",
          "type": "uint64"
        }
      ],
      "name": "scenario9_transferICS20Transfer",
      "outputs": [],
      "stateMutability": "nonpayable",
      "type": "function"
    },
    {
      "stateMutability": "payable",
      "type": "receive"
    }
  ],
  "bytecode": "0x6080806040523461001657610826908161001c8239f35b600080fdfe60806040815260c0604052600480361015610024575b5050361561002257600080fd5b005b60a0916000835260003560e01c8063339b204d14610319578381635627cd7d14610118575063c489744b146100595750610015565b346100f45780519182600319360112610113576001600160a01b038135818116949085900361010e5760243591821680920361010e57516370a0823160e01b81529182015291602090839060249082905afa918215610101578351926100c5575b602083835151908152f35b9091506020813d82116100f9575b816100e0602093836104c2565b810103126100f457602092505190386100ba565b825180fd5b3d91506100d3565b81515184513d90823e3d90fd5b855180fd5b835180fd5b828185346103145761012936610551565b8c515163a9059cbb60e01b81526001600160a01b03998a168c820190815260208082019a909a528d51949d959c999b969a8c9a9899989697939694958f95948c938593908490036040019284929091165af1809651916101ca976102e5575b506102a057506000805160206107d18339815191528d5151806101aa816106a6565b0390a15b8a8d5151998a98899863632535b960e01b8a5230948a01610736565b038189516108025af1801561029357917f6584ffa41ce5e25ea3ea0164e8171d3c01993df4e6a56d6a8bc2e731d6ea641393916000805160206107d1833981519152969593610266575b5084519161022c8351948594855287518501906106f6565b918301520390a151516040808252600e908201526d34b1b999182fba3930b739b332b960911b606082015260016020820152608090a15180f35b61028590823d841161028c575b61027d81836104c2565b8101906106d6565b5087610214565b503d610273565b85515187513d90823e3d90fd5b156102c9576000805160206107d18339815191528d5151806102c181610676565b0390a16101ae565b6000805160206107d18339815191528d5151806102c1816106a6565b6103069192508a3d8c1161030d575b6102fe81836104c2565b81019061065e565b9038610188565b503d6102f4565b505180fd5b50346104bd5781908361036f61032e36610551565b95968c9e939a929b91959899949e515194858094819363a9059cbb60e01b835260209d8e98840160209093929193604081019460018060a01b031681520152565b9351930392906001600160a01b03165af19081156104b0578c5191610493575b501561045757849392916103dd91888a51519b6000805160206107d18339815191528d80829f6103be90610676565b0390a1898c51519e8f98899863632535b960e01b8a5230948a01610736565b03818a516108025af195861561044a577f6584ffa41ce5e25ea3ea0164e8171d3c01993df4e6a56d6a8bc2e731d6ea641394959661042d575084519161022c8351948594855287518501906106f6565b61044390823d841161028c5761027d81836104c2565b5038610214565b84515188513d90823e3d90fd5b87515162461bcd60e51b8152808a018690526015602482015274115490cc8c081d1c985b9cd9995c8819985a5b1959605a1b6044820152606490fd5b6104aa9150863d881161030d576102fe81836104c2565b3861038f565b8951518d513d90823e3d90fd5b600080fd5b90601f8019910116810190811067ffffffffffffffff8211176104e457604052565b634e487b7160e01b600052604160045260246000fd5b81601f820112156104bd5780359067ffffffffffffffff82116104e4576040519261052f601f8401601f1916602001856104c2565b828452602083830101116104bd57816000926020809301838601378301015290565b906101606003198301126104bd576001600160a01b039160049190823584811681036104bd579360243590811681036104bd57926044359267ffffffffffffffff916064358381116104bd57846105a99183016104fa565b936084358481116104bd57816105c09184016104fa565b9360a4358181116104bd57826105d79185016104fa565b9360c4359360e4358381116104bd576105f48560409284016104fa565b946101031901126104bd576040519060408201908282108583111761064957506040526101043583811681036104bd5781526101243583811681036104bd576020820152916101443590811681036104bd5790565b604190634e487b7160e01b6000525260246000fd5b908160209103126104bd575180151581036104bd5790565b9060408252600e60408301526d32b93199182fba3930b739b332b960911b60608301526001602060808401930152565b9060408252600e60408301526d32b93199182fba3930b739b332b960911b60608301526000602060808401930152565b908160209103126104bd575167ffffffffffffffff811681036104bd5790565b919082519283825260005b848110610722575050826000602080949584010152601f8019910116010190565b602081830181015184830182015201610701565b95909461077761079a9461076960209b979561075c8d9a8c6101408091528d01906106f6565b908b82038b8d01526106f6565b9089820360408b01526106f6565b60608801939093526001600160a01b0316608087015285820360a08701526106f6565b9367ffffffffffffffff9281848093511660c087015201511660e08401521661010082015261012081830391015260008152019056fe9f4d25774676d497fe3d8c1e43709b68b186fad01b05798c1410a178ff4ed7d0a2646970667358221220e3b797d81d6dda237d7831efb120a36c1b5eefb96ce60e657de14baae6c6a31764736f6c63430008140033",
  "linkReferences": {},
  "deployedLinkReferences": {}
}