{
  "_format": "hh-sol-artifact-1",
  "contractName": "SequentialICS20Sender",
  "sourceName": "solidity/SequentialICS20Sender.sol",
  "abi": [
    {
      "anonymous": false,
      "inputs": [
        {
          "indexed": false,
          "internalType": "uint256",
          "name": "balance",
          "type": "uint256"
        }
      ],
      "name": "BalanceQueried",
      "type": "event"
    },
    {
      "anonymous": false,
      "inputs": [
        {
          "indexed": true,
          "internalType": "uint256",
          "name": "attempt",
          "type": "uint256"
        },
        {
          "indexed": false,
          "internalType": "uint256",
          "name": "amount",
          "type": "uint256"
        },
        {
          "indexed": false,
          "internalType": "bool",
          "name": "success",
          "type": "bool"
        }
      ],
      "name": "ICS20SendAttempt",
      "type": "event"
    },
    {
      "anonymous": false,
      "inputs": [
        {
          "indexed": true,
          "internalType": "uint256",
          "name": "attempt",
          "type": "uint256"
        },
        {
          "indexed": false,
          "internalType": "string",
          "name": "reason",
          "type": "string"
        }
      ],
      "name": "SequentialSendReverted",
      "type": "event"
    },
    {
      "anonymous": false,
      "inputs": [
        {
          "indexed": false,
          "internalType": "address",
          "name": "token",
          "type": "address"
        },
        {
          "indexed": false,
          "internalType": "uint256",
          "name": "amount",
          "type": "uint256"
        }
      ],
      "name": "TokensReceived",
      "type": "event"
    },
    {
      "anonymous": false,
      "inputs": [
        {
          "indexed": false,
          "internalType": "address",
          "name": "token",
          "type": "address"
        },
        {
          "indexed": false,
          "internalType": "uint256",
          "name": "amount",
          "type": "uint256"
        }
      ],
      "name": "TokensReturned",
      "type": "event"
    },
    {
      "inputs": [
        {
          "internalType": "address",
          "name": "token",
          "type": "address"
        }
      ],
      "name": "getBalance",
      "outputs": [
        {
          "internalType": "uint256",
          "name": "",
          "type": "uint256"
        }
      ],
      "stateMutability": "view",
      "type": "function"
    },
    {
      "inputs": [
        {
          "internalType": "address",
          "name": "token",
          "type": "address"
        },
        {
          "internalType": "string",
          "name": "sourcePort",
          "type": "string"
        },
        {
          "internalType": "string",
          "name": "sourceChannel",
          "type": "string"
        },
        {
          "internalType": "string",
          "name": "denom",
          "type": "string"
        },
        {
          "internalType": "string",
          "name": "receiver",
          "type": "string"
        },
        {
          "internalType": "uint64",
          "name": "timeoutHeight",
          "type": "uint64"
        },
        {
          "internalType": "uint256",
          "name": "amount",
          "type": "uint256"
        }
      ],
      "name": "receiveAndSendTwice",
      "outputs": [],
      "stateMutability": "nonpayable",
      "type": "function"
    }
  ],
  "bytecode": "0x6080806040523461001657610581908161001c8239f35b600080fdfe6040608081526004908136101561001557600080fd5b600090813560e01c806365ab4537146100d45763f8b2cb4f1461003757600080fd5b346100d057602092836003193601126100cc57836001600160a01b0361005b61038d565b169160248451809481936370a0823160e01b835230908301525afa9283156100c157809361008c575b505051908152f35b909192508382813d83116100ba575b6100a581836103da565b810103126100b7575051903880610084565b80fd5b503d61009b565b8251903d90823e3d90fd5b8280fd5b5080fd5b508290346100cc5760e03660031901126100cc576100f061038d565b67ffffffffffffffff91906024358381116103895761011290369086016103fc565b906044358481116103855761012a90369087016103fc565b906064358581116103815761014290369088016103fc565b9260843586811161037d5761015a90369089016103fc565b9560a43590811680910361037d5785516323b872dd60e01b8152338982015230602482015260c43560448201819052602098909490916001600160a01b039091169089816064818f865af1908115610373578c91610339575b5015610301578389969594938c9389938b519081528b888b8301527f5a0ebf9442637ca6e817894481a6de0c29715a73efc9e02bb7ef4ed52843362d91a18c8b516101fd816103a8565b60018152838b8201528c51948591848c8c63632535b960e01b9a8b8752309288880196610229976104b3565b03978a856108029a818a8d5af194610269956102e4575b508c519361024d856103a8565b600185528b8501528c519b8c9a8b998a988952309489016104b3565b03925af190816102b7575b506102b3575162461bcd60e51b815291820152601660248201527514d958dbdb9908151c985b9cd9995c8811985a5b195960521b604482015260649150fd5b8380f35b6102d690843d86116102dd575b6102ce81836103da565b810190610453565b5085610274565b503d6102c4565b6102fa908c8d3d106102dd576102ce81836103da565b5038610240565b875162461bcd60e51b8152808b018a90526012602482015271151c985b9cd9995c881a5b8819985a5b195960721b6044820152606490fd5b90508981813d831161036c575b61035081836103da565b8101031261036857518015158103610368578c6101b3565b8b80fd5b503d610346565b89513d8e823e3d90fd5b8880fd5b8780fd5b8680fd5b8580fd5b600435906001600160a01b03821682036103a357565b600080fd5b6040810190811067ffffffffffffffff8211176103c457604052565b634e487b7160e01b600052604160045260246000fd5b90601f8019910116810190811067ffffffffffffffff8211176103c457604052565b81601f820112156103a35780359067ffffffffffffffff82116103c45760405192610431601f8401601f1916602001856103da565b828452602083830101116103a357816000926020809301838601378301015290565b908160209103126103a3575167ffffffffffffffff811681036103a35790565b919082519283825260005b84811061049f575050826000602080949584010152601f8019910116010190565b60208183018101518483018201520161047e565b949061051594936104e460209998946104d76104f294610140808c528b0190610473565b908982038c8b0152610473565b908782036040890152610473565b60608601939093526001600160a01b0316608085015283820360a0850152610473565b918367ffffffffffffffff918281511660c085015201511660e0820152600061010082015261012081830391015260008152019056fea26469706673582212205e4dfe16435cdbcf4051376984524968aeb3cd20e6678b3eee0c9c4e0db664b564736f6c63430008140033",
  "linkReferences": {},
  "deployedLinkReferences": {}
}