{
  "_format": "hh-sol-artifact-1",
  "contractName": "SequentialOperationsTester",
  "sourceName": "solidity/SequentialOperationsTester.sol",
  "abi": [
    {
      "anonymous": false,
      "inputs": [
        {
          "indexed": false,
          "internalType": "string",
          "name": "label",
          "type": "string"
        },
        {
          "indexed": false,
          "internalType": "uint256",
          "name": "balance",
          "type": "uint256"
        }
      ],
      "name": "BalanceChecked",
      "type": "event"
    },
    {
      "anonymous": false,
      "inputs": [
        {
          "indexed": false,
          "internalType": "string",
          "name": "label",
          "type": "string"
        },
        {
          "indexed": false,
          "internalType": "uint256",
          "name": "count",
          "type": "uint256"
        }
      ],
      "name": "EventCountChecked",
      "type": "event"
    },
    {
      "anonymous": false,
      "inputs": [
        {
          "indexed": false,
          "internalType": "string",
          "name": "operation",
          "type": "string"
        },
        {
          "indexed": false,
          "internalType": "bool",
          "name": "success",
          "type": "bool"
        }
      ],
      "name": "OperationCompleted",
      "type": "event"
    },
    {
      "inputs": [],
      "name": "getContractBalance",
      "outputs": [
        {
          "internalType": "uint256",
          "name": "",
          "type": "uint256"
        }
      ],
      "stateMutability": "view",
      "type": "function"
    },
    {
      "inputs": [
        {
          "internalType": "address",
          "name": "account",
          "type": "address"
        }
      ],
      "name": "getNativeBalance",
      "outputs": [
        {
          "internalType": "uint256",
          "name": "",
          "type": "uint256"
        }
      ],
      "stateMutability": "view",
      "type": "function"
    },
    {
      "inputs": [
        {
          "internalType": "address",
          "name": "token",
          "type": "address"
        },
        {
          "internalType": "address",
          "name": "account",
          "type": "address"
        }
      ],
      "name": "getTokenBalance",
      "outputs": [
        {
          "internalType": "uint256",
          "name": "",
          "type": "uint256"
        }
      ],
      "stateMutability": "view",
      "type": "function"
    },
    {
      "inputs": [
        {
          "internalType": "address",
          "name": "token",
          "type": "address"
        },
        {
          "internalType": "address",
          "name": "recipient",
          "type": "address"
        },
        {
          "internalType": "uint256",
          "name": "amount",
          "type": "uint256"
        },
        {
          "internalType": "string",
          "name": "validatorAddr",
          "type": "string"
        },
        {
          "internalType": "uint256",
          "name": "delegateAmount",
          "type": "uint256"
        }
      ],
      "name": "scenario1_transferDelegateTransfer",
      "outputs": [],
      "stateMutability": "nonpayable",
      "type": "function"
    },
    {
      "inputs": [
        {
          "internalType": "address",
          "name": "token",
          "type": "address"
        },
        {
          "internalType": "address",
          "name": "recipient",
          "type": "address"
        },
        {
          "internalType": "uint256",
          "name": "amount",
          "type": "uint256"
        },
        {
          "internalType": "string",
          "name": "validatorAddr",
          "type": "string"
        },
        {
          "internalType": "uint256",
          "name": "delegateAmount",
          "type": "uint256"
        }
      ],
      "name": "scenario2_transferDelegateRevertTransfer",
      "outputs": [],
      "stateMutability": "nonpayable",
      "type": "function"
    },
    {
      "inputs": [
        {
          "internalType": "address payable",
          "name": "recipient",
          "type": "address"
        },
        {
          "internalType": "uint256",
          "name": "amount",
          "type": "uint256"
        },
        {
          "internalType": "string",
          "name": "validatorAddr",
          "type": "string"
        },
        {
          "internalType": "uint256",
          "name": "delegateAmount",
          "type": "uint256"
        }
      ],
      "name": "scenario3_nativeTransferDelegateNativeTransfer",
      "outputs": [],
      "stateMutability": "payable",
      "type": "function"
    },
    {
      "inputs": [
        {
          "internalType": "address payable",
          "name": "recipient",
          "type": "address"
        },
        {
          "internalType": "uint256",
          "name": "amount",
          "type": "uint256"
        },
        {
          "internalType": "string",
          "name": "validatorAddr",
          "type": "string"
        },
        {
          "internalType": "uint256",
          "name": "delegateAmount",
          "type": "uint256"
        }
      ],
      "name": "scenario4_nativeTransferDelegateRevertNativeTransfer",
      "outputs": [],
      "stateMutability": "payable",
      "type": "function"
    },
    {
      "inputs": [
        {
          "internalType": "address payable",
          "name": "recipient",
          "type": "address"
        },
        {
          "internalType": "uint256",
          "name": "amount",
          "type": "uint256"
        }
      ],
      "name": "testNativeTransfer",
      "outputs": [
        {
          "internalType": "bool",
          "name": "",
          "type": "bool"
        }
      ],
      "stateMutability": "payable",
      "type": "function"
    },
    {
      "stateMutability": "payable",
      "type": "receive"
    }
  ],
  "bytecode": "0x6080806040523461001657610ae2908161001c8239f35b600080fdfe60406080815260049081361015610020575b5050361561001e57600080fd5b005b600091823560e01c908163456503c8146105835781635b3d97d5146104b55781635c3f86c9146103905781636e348ad6146101af5781636f9fb98a14610194578163c489744b146100e457508063e1f756c3146100a95763efd8be620361001157346100a55760203660031901126100a55760209061009d6106bc565b319051908152f35b5080fd5b50806003193601126100a5578180806020946100c36106bc565b602435906001600160a01b03165af1906100db610992565b50519015158152f35b9190503461017a578060031936011261017a576100ff6106bc565b916024356001600160a01b038181169182900361019057602092602491855196879485936370a0823160e01b8552840152165afa91821561018657839261014b575b6020838351908152f35b9091506020813d821161017e575b81610166602093836106d7565b8101031261017a5760209250519038610141565b8280fd5b3d9150610159565b81513d85823e3d90fd5b8580fd5b5050346100a557816003193601126100a55751478152602090f35b9190503461017a576101c036610772565b855163a9059cbb60e01b8082526001600160a01b038681168a84019081526020808201889052959a94999895979590911693928b9291889082908190604001038186895af1908115610386579061021e918491610369575b5061082e565b8664e8d4a5100089519a600080516020610a8d8339815191528c80610243839f610872565b0390a16102658b519d8e9384936353266bbb60e01b855204903089850161089d565b0381856108005af1998a1561035f578798999a979697610342575b508989518061028e816108f9565b0390a16102bb8951978896879586948552840160209093929193604081019460018060a01b031681520152565b03925af191821561033857906102da9291869261030b575b505061094d565b516040808252600990820152683a3930b739b332b91960b91b60608201526001602082015280608081015b0390a180f35b61032a9250803d10610331575b61032281836106d7565b810190610816565b38806102d3565b503d610318565b83513d87823e3d90fd5b61035890873d89116103315761032281836106d7565b5038610280565b88513d84823e3d90fd5b6103809150893d8b116103315761032281836106d7565b38610218565b89513d85823e3d90fd5b91905061044c8380808064e8d4a5100060206103ab366107cc565b91946001600160a01b0390931693909290916103d6878080808a8a5af16103d0610992565b506109c2565b6104178c519d600080516020610a8d8339815191529e8f90806103f881610a0e565b0390a18d516353266bbb60e01b8152958694859404913090850161089d565b0381876108005af19081610497575b50610482578888518061043881610923565b0390a15b5af1610446610992565b50610a40565b5160408082526010908201526f3730ba34bb32afba3930b739b332b91960811b6060820152600160208201528060808101610305565b8888518061048f816108f9565b0390a161043c565b6104ae9060203d81116103315761032281836106d7565b5038610426565b9190508264e8d4a5100060206104ca366107cc565b91946001600160a01b0390931693909290916104ef878080808a8a5af16103d0610992565b61052f885199600080516020610a8d8339815191528b80610510839e610a0e565b0390a189516353266bbb60e01b8152958694859404913090850161089d565b0381876108005af18015610579579380938193829361044c9761055b575b5088885180610438816108f9565b6105729060203d81116103315761032281836106d7565b503861054d565b85513d86823e3d90fd5b9190503461017a5761059436610772565b855163a9059cbb60e01b8082526001600160a01b038681168a84019081526020808201889052939a9499989397959390911693928b929188908c908190604001038186895af19a8b156103865788999a9b6105f891859a999a91610369575061082e565b8664e8d4a510008b519c600080516020610a8d8339815191528e819f61061d81610872565b0390a161063f8d5194859384936353266bbb60e01b85520490308a850161089d565b0381866108005af1908161069f575b5061068a578989518061028e81610923565b6102bb8951978896879586948552840160209093929193604081019460018060a01b031681520152565b89895180610697816108f9565b0390a1610660565b6106b590883d8a116103315761032281836106d7565b503861064e565b600435906001600160a01b03821682036106d257565b600080fd5b90601f8019910116810190811067ffffffffffffffff8211176106f957604052565b634e487b7160e01b600052604160045260246000fd5b67ffffffffffffffff81116106f957601f01601f191660200190565b81601f820112156106d2578035906107428261070f565b9261075060405194856106d7565b828452602083830101116106d257816000926020809301838601378301015290565b9060a06003198301126106d2576001600160a01b039160043583811681036106d2579260243590811681036106d25791604435916064359067ffffffffffffffff82116106d2576107c59160040161072b565b9060843590565b60806003198201126106d2576004356001600160a01b03811681036106d25791602435916044359067ffffffffffffffff82116106d25761080f9160040161072b565b9060643590565b908160209103126106d2575180151581036106d25790565b1561083557565b60405162461bcd60e51b8152602060048201526015602482015274119a5c9cdd081d1c985b9cd9995c8819985a5b1959605a1b6044820152606490fd5b906040825260096040830152687472616e736665723160b81b60608301526001602060808401930152565b9392919060018060a01b03168452602060608186015281519182606087015260005b8381106108e55750505060808160008260409488010152601f8019910116850101930152565b8181018301518782016080015282016108bf565b9060408252600860408301526764656c656761746560c01b60608301526001602060808401930152565b9060408252600860408301526764656c656761746560c01b60608301526000602060808401930152565b1561095457565b60405162461bcd60e51b815260206004820152601660248201527514d958dbdb99081d1c985b9cd9995c8819985a5b195960521b6044820152606490fd5b3d156109bd573d906109a38261070f565b916109b160405193846106d7565b82523d6000602084013e565b606090565b156109c957565b60405162461bcd60e51b815260206004820152601c60248201527f4669727374206e6174697665207472616e73666572206661696c6564000000006044820152606490fd5b9060408252601060408301526f6e61746976655f7472616e736665723160801b60608301526001602060808401930152565b15610a4757565b60405162461bcd60e51b815260206004820152601d60248201527f5365636f6e64206e6174697665207472616e73666572206661696c65640000006044820152606490fdfe9f4d25774676d497fe3d8c1e43709b68b186fad01b05798c1410a178ff4ed7d0a264697066735822122041f6e19681792c3b477f80995457b249f902bd5716b911371fa6047817a468f064736f6c63430008140033",
  "linkReferences": {},
  "deployedLinkReferences": {}
}